:020000021000EC
:10000000E03F082095010100FB000100E100010034
:10001000090101001901010029010100000000008F
:10002000000000000000000000000000C1AE010060
:10003000390101000000000021AF01005901010059
:1000400001B5010001B5010001B5010001B50100D4
:1000500001B5010001B5010001B5010001B50100C4
:1000600001B5010001B5010001B5010001B50100B4
:1000700001B5010001B5010001B5010001B50100A4
:1000800001B5010001B5010001B5010001B5010094
:1000900001B5010001B5010001B5010001B5010084
:1000A00001B5010001B5010001B5010001B5010074
:1000B00001B5010001B5010001B5010001B5010064
:1000C00001B5010001B5010001B50100106D02008C
:1000D00000C00720F4020000F8C207205805000005
:1000E00004207146084203D0EFF309800BF026BAD2
:1000F000EFF308800BF022BA704708B5014807F00B
:10010000EFFEFEE7AA66020008B5024807F0E8FE27
:10011000FEE700BFB566020008B5024807F0E0FE42
:10012000FEE700BFC066020008B5024807F0D8FE2F
:10013000FEE700BFCB66020008B5024807F0D0FE1C
:10014000FEE700BFD866020008B5024807F0C8FE07
:10015000FEE700BFE666020008B50AF063FE0AF09B
:1001600001FFBDE808400AF071BE0B4610B5401A09
:100170005C1AA24203D9C45843F8044BF8E710BDF7
:10018000034610B500221C1AA14202D943F8042BE1
:10019000F9E710BD16480AF087FF15480AF087FFF7
:1001A000144C154DAC4201D3144D07E094E8030004
:1001B0000C3454F8042CFFF7D8FFF3E7AC4206D216
:1001C00054F8080B54F8041CFFF7DAFFF6E70DF0BB
:1001D000FFF80AF083FF01F015FE02F053FF4FF421
:1001E00016400BF0C9FA064807F07AFEFEE700BF9A
:1001F000E03F0820CC000100D8000100E000010031
:10020000FA6602000AF070BE0AF07EBE144B10B50A
:100210001A68014612B94FF080521A60114C1868E2
:100220002468421894421A6007D20F4CA24204D8A4
:100230000E4A0B488C18046010460D4A1B68126861
:10024000934222BF064B00201A6039B1094A136855
:1002500001331360084B1860084B196010BD00BFD4
:10026000FCC2072004C30720FFBF072050C8072097
:1002700008C307200CC30720F8C2072000C30720CB
:100280000DF03EBA0DF044BA0DF042BA30B5044656
:100290008BB068460DF0F0FC224B079A2360089B58
:1002A000214DA36062602149214B52B90A68186848
:1002B00082428ABF02F1604202F17042A2F5E82256
:1002C000626062681B68B2F5803F82BF02F17042D3
:1002D000A2F5E82262600022E2600A68934206D337
:1002E000991AC5F1005303F504230B440BE0114B9D
:1002F0001B68934208D9991AC5F1005303F5F823F6
:100300000B44002B00DDE36020460B4BE2611B68D1
:10031000A3610A4B1B686361094B1B6823610BB027
:1003200030BD00BF5008000050C80720FCC20720A5
:1003300004C3072008C30720F8C2072000C3072012
:100340000CC3072000207047034A044B1A60044A7C
:10035000044B1A60704700BF0080001004C30720E0
:100360000040082008C30720014B1860704700BFF9
:1003700018C30720014B1860704700BF10C3072047
:1003800008B502480EF020FCFEE700BF443C020026
:1003900008B502480EF018FCFEE700BF5E3C020004
:1003A0000020704701207047F8B5084B16461A68C0
:1003B0000F461C4642B10D46EB1B9E4204DD2368EE
:1003C00015F8010B9847F7E73046F8BD18C307202A
:1003D000F8B5094B0F46186816461C4658B10D462D
:1003E000EB1B9E4205DD23680020984705F8010BB2
:1003F000F6E726EAE670F8BD10C307207047002034
:100400007047FFFF074B1B689A68824207D05A6803
:10041000824204D0DB681B1A5842584170470120C1
:10042000704700BF38C10720002070470020704788
:1004300030B504468DB0A8B3684608F0D9FD9DF8E4
:100440000030002503F03F0303939DF8013003A81B
:1004500003F03F0304939DF802300B9503F01F0354
:1004600005939DF8043003F01F0306939DF80530B3
:1004700003F00F03013B0793BDF80630C3F30B03F2
:10048000A3F26C7308939DF8033003F007030993FC
:10049000BDF80830C3F30B03013B0A930DF07AFA61
:1004A00084E8210000200DB030BDFFFF70B50F4D76
:1004B0000F4E2C6814F0010415D128460BF0FCFCFB
:1004C00088B14FF40E70FFF7DBFE302380F8353231
:1004D0003A2380F8344280F8363280F83742306070
:1004E00028460BF0F5FC306870BD00BF34C3072010
:1004F00038C3072070B50F4D0F4E2B6813F0010461
:1005000016D128460BF0D8FC90B14FF40E70FFF7CF
:10051000B7FE012380F83432312380F835323A2394
:1005200080F8363280F83742306028460BF0D0FC35
:10053000306870BD2CC3072030C307202DE9F04F71
:10054000ADF51B7D0F4608F013F9041E04DD0AF01B
:1005500031FC20460AF074F90DF114094C462A4D7D
:100560004FF0640B0FCD0FC42B6804AA2360102139
:1005700000240AA804940AF021FB244A8246244954
:10058000384608F0A5FF26460AAD4FF00008D045D2
:100590001CD06B69A34215D1AA69049B16441BB1F8
:1005A000B3FBFBF3B2FBF3F3297B039202932B8C97
:1005B00000949B00019359F821306A681549384628
:1005C00008F086FF08F101082435E0E701340A2C21
:1005D000DAD1049B64229E1BB3FBF2F30E49B6FBF7
:1005E000F3F30E4A0096384608F072FF09F0FCFF5C
:1005F000102804D910220A49384608F069FF012062
:100600000DF51B7DBDE8F08F783C0200973C0200A1
:100610009C3C0200C33C0200EB3C0200E03C0200B8
:100620000A3D020010B50C46ADF5007D68460AF0A3
:10063000EDFE20464FF0FF32694608F013FF01201F
:100640000DF5007D10BDFFFF30B50C4691B02C4973
:10065000054607F099FF002847D00CAB04930BAB7D
:1006600003930AAB029309AB019308AB009306AA6C
:1006700007AB2449284607F0EFFE072801D00020E9
:100680003BE09DF83930069A0DA862F303038DF81C
:100690003930079A9DF8383062F304038DF838300A
:1006A000089ABDF83A3062F30B03ADF83A30099A74
:1006B0009DF8363062F304038DF836300A9A9DF8BF
:1006C000353062F305038DF835300B9A9DF83430E0
:1006D00062F305038DF834300C9A9DF8373062F3DD
:1006E00002038DF8373008F0ABFC08F045FD0649F1
:1006F0000246204608F0ECFE012011B030BD00BFDC
:10070000343D0200383D02000A5F0200F7B50D4695
:100710004E49044608F028F8064640B107F078FA3A
:100720004FF0FF324A49284608F09CFE8BE04949C9
:10073000204608F019F860B307F08EFA46490246E1
:10074000284608F0C5FE07F093FA444902462846B9
:1007500008F0BEFE07F086FA41490246284608F036
:10076000B7FE304607F06EFA0446012007F06AFA39
:100770000646022007F066FA0746032007F062FAF1
:1007800000970190334622463649284608F0A0FEDD
:1007900059E03549204607F0F7FE50B120220121EB
:1007A000204607F08FFF204607F0E0FF07F078FBB8
:1007B00049E02E49204607F0E7FE064620B92C49BD
:1007C000204607F0E1FE60B32A49204607F0CAFE42
:1007D00060B92949204607F0C5FE28B920462749B7
:1007E00007F0C0FE044602E0032400E00224314684
:1007F000204607F0ADFA224A224B002E18BF1A46B7
:100800003CB1012C07D01C491A4B022C18BF0B46D7
:1008100002E01D4B00E0194B1C49284608F058FE29
:1008200011E0204607F0A2FF194A1A490090F3236D
:10083000012007F09BFA204607F098FF1649024670
:10084000284608F045FE012003B0F0BD733D0200CC
:10085000793D0200923D0200993D0200AE3D02004A
:10086000C33D0200E23D0200123E0200163E0200BD
:100870001E3E02006E3D0200683D0200624F020013
:10088000593D0200513D0200623D0200273E020038
:100890008C3C0200403E0200733E020030B589B03D
:1008A00004AB002400930D4603AB022218490394C5
:1008B000049407F0DFFD022827D107AB009305AAB7
:1008C00006AB0499039805940694079403F0ACFED4
:1008D000024638B1049B0F4900932846039B08F059
:1008E000F7FD10E0059A069B002A079908BF012230
:1008F000002B08BF0123B1FBF3F3B1FBF2F2284652
:10090000054908F0E5FD012000E0204609B030BDB2
:10091000024F0200813E0200A03E02002DE9F04796
:100920000E46ADF5856D3949054607F0B7FE3849E5
:100930000746284607F0DBFE3549284607F0F7FE54
:10094000284607F013FF0122014681A805F0B6FEF4
:10095000044640B1284607F009FF2E4902463046BA
:1009600008F0B6FD4CE00DF1040A01464FF40072A8
:1009700050460CF02AFF00940AF032FD804689466A
:100980006B464FF40072514681A805F031FF08B95B
:10099000009B23BB81A806F0FAF8CFB10AF020FD36
:1009A0004FF47A7200230CF0C9F9002305464FF486
:1009B0007A72404649460CF0C1F9281A14BF034622
:1009C0000123B4FBF3F322461349304608F080FDBF
:1009D0004FF0FF321149304608F044FD10E01C444E
:1009E000002FCDD13D46009B9D42C9D233681AF8F5
:1009F00005105B684FF0FF32304698470135F2E74B
:100A000001200DF5856DBDE8F08700BFCE3E0200E8
:100A1000024F0200D73E0200EB3E02007944020082
:100A20002DE9F0470023BEB00C46534905460C9310
:100A300007F09AFE20B9284607F098FE064600E027
:100A40004E4E314615A806F05BF9054630B1034617
:100A500032464B49204608F03BFD89E03246494981
:100A6000204608F035FD2F460DF1780880230DA9AA
:100A700015A8CDF84C80149306F086F9002861D1B2
:100A80009DF83D30002B5DD09DF83C100DF13D00F0
:100A9000CA065BBF0D9B0C9A44229B185BBF0C934C
:100AA0002D220135013711F0010F14BF52232D23E0
:100AB000BDF83AA011F0020F09900D9814BF4FF045
:100AC000480E4FF02D0E11F0040F14BF4FF0530CD1
:100AD0004FF02D0C089011F0200FCAF34510BDF80F
:100AE000381007904FEAEA20069001F01F000590A9
:100AF000C1F343104FEA612114BF4FF041094FF099
:100B00002D0901F2BC71CDF804C0CDF800E00490CD
:100B10000391CDF808901C49204608F0D9FC4FF00D
:100B2000FF321A49204608F089FC41464FF0FF3257
:100B3000204608F083FC4FF0FF320F49204608F0B2
:100B400091FC91E73A46124900950C9B204608F02B
:100B5000BFFC0BAA0CA9304606F045F940B90B9B27
:100B60000C499A780C9B20465A43520808F0B0FC76
:100B700001203EB0BDE8F08779440200063F020044
:100B8000093F02002D3F0200483F0200753F02006E
:100B9000793F0200A33F020070B50C46064607F0FD
:100BA000E5FD0546304607F0E1FD06F0DEF9064AB0
:100BB000064B0749002808BF13462A46204608F07E
:100BC00087FC012070BD00BF594102006341020053
:100BD000B73F020070B50C46064607F0C7FD054654
:100BE000304607F0C3FD06F063F9064A064B074995
:100BF000002808BF13462A46204608F069FC012059
:100C000070BD00BF5941020063410200D33F0200A2
:100C10007FB503AB002400930E4602AB02220F49BE
:100C20000294039407F026FC022814D1029C039D31
:100C30002046294606F042FA094B0A492246002876
:100C40000CBF084618462B4600900749304608F06E
:100C50003FFC012000E0204604B070BD024F0200BE
:100C60006341020059410200E53F020030B5ADF595
:100C70000D7D0C46054607F079FD0A22014603A8C2
:100C800005F01CFD40B1284607F070FD1F490246E3
:100C9000204608F01DFC34E08DF8070002901C4946
:100CA00042F210737E22204608F012FC19492046B9
:100CB00008F00EFC236842F210721B680DF1070168
:100CC0002046984718B19DF807307E2B03D103A822
:100CD00005F05DFF15E002AB01220DF1070103A84D
:100CE00005F03EFE58B9029B012B08D123684FF056
:100CF000FF325B689DF8071020469847DAE70649FF
:100D0000D5E701200DF50D7D30BD00BFFD3F020090
:100D1000244002005C4002007C4002002DE9F04FBC
:100D2000ADF5417D002304AC236003930D46009490
:100D300003AB0222414907F09DFB022806D04FF089
:100D4000FF323F49284608F08DFB72E0216817A862
:100D500005F0D6FF10B122683A4906E0039917A8BA
:100D600005F0CEFF28B1039A3749284608F0B0FBBA
:100D70005FE04FF480720DEB020105A807F03CFB29
:100D80004FF4807280A90AA807F036FB20AE8027B6
:100D90000FA917A81596169705F0F6FF002842D15F
:100DA0009DF84530002B3ED09DF8443003F01003F1
:100DB00003F0FF0A002BEBD10DF14503039A234901
:100DC00005A807F01DFD0DF1450322681F490AA87B
:100DD00007F016FD05A807F0C9FC07460AA807F0AA
:100DE000C5FC804605A8DDF83C9007F0BFFC8346B3
:100DF0000AA807F0BBFC534652460146CDF800A0B6
:100E0000584603F011FC124A124BCDF8009000280E
:100E10000CBF184610461049019043463A462846F2
:100E200008F056FBB3E70AA807F0FBFA05A807F09D
:100E3000F8FA01200DF5417DBDE8F08F024F020068
:100E4000A3400200E84002000D4102002D410200D3
:100E5000634102005941020033410200F8B50D46DA
:100E60002449064607F080FC0446074618B1FFF700
:100E700041FB002208E02049304607F075FC04469B
:100E800060B1FFF713FB3A46114600F2352006F039
:100E9000A5F94FF0FF32194B194922E019493046A4
:100EA00007F062FC044658B1FFF724FB012200F270
:100EB000352105F0C5FB4FF0FF32134B134910E00D
:100EC0001349304607F050FC044680B1FFF7EEFAB4
:100ED000012200F2352105F0B3FB0E4B0E494FF015
:100EE000FF32002818BF1946284608F0BBFA2046F2
:100EF000F8BD00BFBA410200C44102005C410200DB
:100F000052410200D14102007941020069410200D0
:100F1000DA4102009E4102009041020008B50846F5
:100F20004FF0FF32084908F09DFA06F071FE4FF4C9
:100F3000FA6009F085FC4FF08043AA221A72002261
:100F40001A70012008BD00BFE641020010B5012063
:100F50000C4607F045FA40B100231A46194608F03E
:100F600081FF4FF0FF32054902E005494FF0FF32A3
:100F7000204608F077FA012010BD00BFF7410200BB
:100F80000D42020038B5064C236833B91C20FFF728
:100F900077F9054607F0B2FE2560206838BD00BF2E
:100FA00024C307202DE9F04F5F4C91B023680E4613
:100FB00033B92C20FFF764F9054608F0B5F9256030
:100FC0002768FFF773FA00240CAA0DA900F2352058
:100FD0000D9405F008FF48B90C9A0D9C956993781B
:100FE000023D5C435D4364086D0800E025464F4BBD
:100FF0001A6898467AB90C20FFF742F98146FFF744
:10100000C1FF902389F804300023C9F80000C9F813
:101010000830C8F80090D8F8000003F0F3FA8146D1
:101020000BF046FE0A900BF029FC014648460BF0F7
:101030006FFB3F490BF076FC0BF03AFE81460DA8A2
:101040000AF042F804F034FA68B308F00FF904F03B
:1010500019FA4FF0000A0346D346D0469A450B933F
:101060000BD0504604F072FA804538BFD3460B9B34
:1010700038BF80460AF1010AF0E708F00FF964234F
:1010800003FB08F32B4ACDF80880B3FBF2F3C3F15E
:1010900064030093CDF804B02B462246264930461F
:1010A00008F016FA05E02B4622462449304608F09F
:1010B0000FFA234C23681BB90120FFF7E1F82060E9
:1010C000206803F063FA044608F056F8FB8C0A9A8D
:1010D0000993BB8C1B4908939DF83430019003F0B1
:1010E0003F0307939DF83530009403F03F030693C8
:1010F0009DF83630304603F01F030593BDF83A30B3
:10110000C3F30B0304939DF8383003F01F030393DC
:101110009DF8393003F00F0302934B4608F0D8F9DD
:10112000012011B0BDE8F08F28C307201CC30720A1
:1011300000002041A0860100464202007A420200DF
:1011400020C30720884202002DE9F04F0D46C7B0AA
:101150005549814607F02FFA54498246484607F020
:101160002AFA53498346484607F025FA00270DF12D
:10117000100805AE044602970397C8F80070376060
:10118000BAF1000F45D0009603AB02AA4949484680
:1011900007F062F9012807DC28464FF0FF32464984
:1011A00008F060F938467CE00DF118084FF48074BF
:1011B0002246394640460CF008FB336813B9012338
:1011C000336003E0B3F5807F88BF3460FFF7DAFE59
:1011D00033689DF80C209DF808100093434608F0F2
:1011E0003DFA364A364B3749002818BF1346029A53
:1011F000284608F06DF9002433689C424ED2039AC9
:1012000018F8043022443049284608F061F90134C6
:10121000F2E7BBF1000F2CD0CDF8008003AB02AA9F
:101220002A49484607F018F9032807D028464FF006
:10123000FF32274908F016F9504632E0FFF7A2FEC8
:1012400098F800309DF80C209DF8081008F01BFA63
:1012500048B1039B1F490093D8F80020029B284601
:1012600008F036F91AE0029A1B49284608F030F9CE
:1012700014E0A8B102230293029BFE2B10DCFFF7BF
:1012800081FE9DF8081008F009FA20B1029A13496E
:10129000284608F01DF9029B0233ECE7012000E02C
:1012A000204647B0BDE8F08F21500200F142020015
:1012B000F7420200004302000F43020059410200BE
:1012C00063410200304302005443020064430200C1
:1012D000744302009B430200B5430200D243020064
:1012E00070B5ADF50A7D05460C4607F0ACF80B2845
:1012F00002DD0C2222493CE0284607F037FA0122A1
:10130000014601A805F0DAF9064668BB01A805F018
:101310003EFC284607F02AFA1A490246049B20465A
:1013200008F0D6F8236820469B6898470A2009F001
:1013300087FA4FF0100383F31188BFF36F8FBFF369
:101340004F8F284607F012FA02460F4B006851688B
:1013500003C390680D4A186043F80C2C4FF080438B
:10136000AA221A721E7007E0284607F0FFF902460B
:101370000749204608F0ACF801200DF50A7D70BD44
:101380000C44020033440200484002400DD0ADDE60
:101390007A4402002DE9F041404CA4B0236806468F
:1013A000DB070D460CD420460AF086FD40B14FF411
:1013B00080600CF0A5F93A4B186020460AF088FDD1
:1013C0003849304607F0F7F80746044600B3802254
:1013D000002104A80CF0F9F900230293039303AB56
:1013E000009304AA02AB3049304607F035F82C4987
:1013F000029B039A096804A813B903F0B1F901E04C
:1014000003F0D0F9294B2A49002818BF194638E0C3
:101410002849304607F0CFF8074600283AD004ABF9
:10142000304603AA2449039404948DF8084007F039
:1014300013F8039E049B3344B3F5806F02DCDFF89E
:1014400060800CE04FF480621C4920E0D8F8003046
:101450009DF808209A559DF8083001361C44039BDE
:10146000049AF31A934210DAB6F5806F0DDA2B68FE
:101470004FF4FA621B6802A9284698470028E5D174
:101480000F49284608F024F804E022460D49284672
:1014900008F01EF8384624B0BDE8F08140C30720AC
:1014A0003CC30720A5440200AC4402009344020060
:1014B0008F440200BC440200C3440200CD44020039
:1014C000F14402000145020038B50D4607F050F91D
:1014D0000446C0B202F000F8054A064B064900284F
:1014E00018BF13462246284607F0F2FF012038BDF8
:1014F00059410200124502001945020030B50C4660
:10150000054687B00A4907F0E3FFA18823880491C4
:10151000218962880391E18828460291E17A01914C
:10152000A17A0091034907F0D3FF07B030BD00BF97
:1015300030450200664502002DE9F0418CB003AB56
:10154000002600930D46904602AB022238490296CF
:10155000039606F08FFFB04266DD02980BF085FD22
:10156000C7B2039818B10DF031FEC4B200E00446D2
:10157000002104A802F050FE30B14FF0FF322D4997
:10158000284607F06FFFF3E7022318F100010093EC
:10159000039A234618BF0121384602F0E1F80646B7
:1015A00038B94FF0FF322449284607F05BFF012687
:1015B0003AE0B8F1000F37D04FF47A7104A802F086
:1015C00033FE60B39DF81030BB4228D19DF8173030
:1015D0000C2B04D13A4606A92846FFF78FFFBCB969
:1015E0001649284607F074FF9DF817309C420ADA26
:1015F00004AB19192B684FF0FF325B68097A284653
:1016000098470134F0E70E49284607F061FF0BE0E8
:101610004FF0FF320B49284607F024FF04E0029AFE
:101620000949284607F054FF30460CB0BDE8F08168
:10163000024F020084450200A6450200CE4502008A
:10164000FB4B0200E2450200FF4502001FB501A866
:101650000C4602F063FA01F04BFF01A90246204656
:10166000FFF74CFF012004B010BDFFFF30B58BB079
:101670000AAA4FF47A730C4642F8243D174906F043
:10168000EBFE0025019902A802F0C6FDD8B19DF835
:1016900008201349204607F01BFF00259DF80F3056
:1016A0009D420ADA02AB591923684FF0FF325B689A
:1016B000097A204698470135F0E70A49204607F0A5
:1016C00007FF0125DEE72DB94FF0FF32064920461E
:1016D00007F0C8FE01200BB030BD00BFCA440200B5
:1016E00025460200784402003C46020037B50C460D
:1016F00002F078F805461649204607F0E9FE15493C
:101700002A46204607F0E4FE1149204607F0E0FE95
:10171000D5B11149204607F0DBFE0D49204607F000
:10172000D7FE0025E8B202F047F8013540B18178D4
:101730004378027800912046084907F0C9FEF1E796
:101740000349204607F0C4FE012003B030BD00BFAE
:101750004D46020068460200824602009D46020095
:101760002DE9F3473C4C074626688946002E62D196
:101770002420FEF785FD0423054680E848008660A6
:10178000C660202130460DF089FAAE68E8604FEA65
:101790008608072E0ED81020FEF772FD8246102212
:1017A00000210CF012F8EB68013643F808A008F1AC
:1017B0000408EEE7002608236B604FF00108274B72
:1017C000274A28492846009685F82080256005F09C
:1017D00091FF254B254A26492068009605F08AFF8F
:1017E000244B254A25492068009605F083FF244BA9
:1017F000244A25492068009605F07CFF234B244AA3
:1018000024492068009605F075FF234B234A24499C
:101810002068CDF8008005F06DFF224B224A204958
:101820002068009605F066FF0096204B204A21496B
:10183000206805F05FFF2049384606F095FF18B193
:101840001E49384607F04AF84A463946206802B031
:10185000BDE8F04706F02EB848C30720B84602009E
:10186000F24602000D1B0100F94602004D4702003E
:10187000E118010056470200794702006D16010089
:101880007C470200DB4C0200C9140100A64702009D
:10189000C2470200ED160100C947020030480200AD
:1018A000391501000A4802002F480200344802009E
:1018B0004F4802004D1601007944020055480200CD
:1018C00038B5064C236833B95820FEF7D9FC0546D5
:1018D00007F06EFB2560206838BD00BF44C30720B9
:1018E0002DE9F04F0446ADF2DC5D802288460DA85C
:1018F00000210BF06AFF802200212DA80BF065FF6C
:1019000006AE002333600DAA00962DAB7549204624
:1019100006F0A2FD032801D00020DFE001220DA97E
:10192000EDA804F0CBFE05460028F5D1FFF7C8FF6F
:101930003368802280F853304DA9044608A88DF8FA
:101940001750079506F058FD2DAB009333680DAA8C
:101950006549404607F0BCFDA94607AE33464FF443
:1019600000726DA9EDA804F043FF002840F0AF809D
:101970003368002B00F0AB806F1C32685B49204657
:1019800007F0A6FD236820469B6898477D1E0DF54D
:10199000DA7B4FF0000A6DAB3268C3EB0B039A425F
:1019A00023680CD9CDF80CB05B684FF0FF321BF800
:1019B000011B20469847039B1B789A44EBE79B68E2
:1019C0002046984708A806F0D1FE834608A806F0EE
:1019D0003DFD4FF47A7302465946204607F050FD0C
:1019E000202201210DEB020006F06CFE08A806F093
:1019F000BFFE824520D008A806F0BAFE5246034634
:101A00003B49404607F064FD3A49204607F060FD37
:101A1000236820469B68984723684FF47A721B68B6
:101A20000DF11701204698470028F5D1022F07F144
:101A300001034CD81F46A0E733682DAA2E49009316
:101A400020464B4607F044FD236820469B68984794
:101A500008A806F08BFE824608A806F0F7FC51465F
:101A600002464FF47A73204607F00AFD234908A87E
:101A700006F078FDD0B908A806F078FE20490246A5
:101A8000404607F025FD1B49204607F021FD23684D
:101A900020469B68984723684FF47A721B680DF1C3
:101AA0001701204698470028F5D1BFE7154908A837
:101AB00006F014FF3368144999444A46F09B4046A7
:101AC00007F006FD002D3FF448AFBD1E45E7EDA829
:101AD00005F05DF808A806F0A4FC01200DF2DC5D1D
:101AE000BDE8F08F5A4802006948020080480200B1
:101AF0009248020078440200B9480200CF48020030
:101B0000D2480200794402000A4902002DE9F04758
:101B1000074686B006AA002442F80C4D0E463D4901
:101B200006F09AFC20220121384606F0CBFD039BEB
:101B3000002B65D0384606F086FC002860D0FFF701
:101B4000BFFE05460DF1180808F80D4D2B6805225B
:101B50001B6841462846984704460028F6D1039B57
:101B6000384685F8533006F001FE274601464FF00F
:101B7000FF32284607F076FC2B6828469B6898477A
:101B8000254B0DF11809186849F8044D04902B688D
:101B90004FF47A721B68414628469847D0B1032219
:101BA0000DF1150148460BF0F5FD9DF80BA0042240
:101BB00004A948468DF817A00BF0D2FD50B1336848
:101BC00001225B6851463046013798470028DED134
:101BD0000134DCE71822B7FBF2F302FB137202B107
:101BE00001333A460D49304607F072FC74B1612367
:101BF000009322460A4B0B49304607F069FC05E08A
:101C00004FF0FF320849304607F02CFC012006B0A7
:101C1000BDE8F087CA4402000E45020016490200E2
:101C20003D49020079490200324A020070B5164E61
:101C3000164D174C0021304602F024FB3046154E5D
:101C40002A462146FEF77EFB4621304602F01AFB6B
:101C50003046114E2A462146FEF774FB01213046DC
:101C600002F010FB30460D4E2A462146FEF76AFB75
:101C70003421304602F006FB2A4621463046BDE8B4
:101C80007040FEF75FBB00BF4CC3072014C30720A2
:101C90006143010064C3072054C307205CC30720CD
:101CA00001480CF091BF00BF5E4A020038B50446FF
:101CB0000D4609F00FFD074BB0FBF3F00223B0FB1C
:101CC000F3F2AA4204D9B3F5807F01D00233F6E7DC
:101CD000236138BD40420F007FB500F235260C4627
:101CE0000122314604F0ACFC054648BB039002AA31
:101CF00003A9304605F077F800BB0298039A837871
:101D000002FB03F182691348023A5A435208B2F5C2
:101D1000004F38BF0120104B4FEA510124BF03464A
:101D20004FF48060B1FBF0F1B2FBF0F2009101934F
:101D300021460A480CF0D6FE012008E0084B00E0DE
:101D4000084B2A46214608480CF0CCFE002004B07F
:101D500070BD00BF9C4A0200994A0200A64A0200D8
:101D6000A24A02009F4A0200D44A020038B5074C3A
:101D700023684BB90820FEF783FA0546FFF702F9FE
:101D8000402328602B712560206838BD74C307206C
:101D900038B5054C256825B90120FEF771FA0570A4
:101DA0002060206838BD00BF70C3072038B5084CDC
:101DB00023685BB90C20FEF763FA0546FFF7E2F8EB
:101DC00090232B7100232860AB602560206838BD0C
:101DD0001CC3072010B5044C23681BB90120FEF773
:101DE0004FFA2060206810BD20C3072010B5044CB6
:101DF00023681BB90120FEF743FA2060206810BD5C
:101E00006CC30720AD49AE4A4023F0B58B614FF05B
:101E1000007393614FF480338B61AA4BADF5057D60
:101E20001868072520F0F00018601868022440F0B8
:101E300050001860186820F440501860086840F09E
:101E400040000860186820F47C201860186840F48E
:101E500028201860186820F470001860186840F492
:101E600020001860186820F040401860186840F0A2
:101E700000401860586820F03C005860586840F0F6
:101E800028005860586820F003005860086840F443
:101E900080300860586820F440505860086820F48A
:101EA00080000860D96821F44031D960116841F0A0
:101EB00080711160596821F440215960596841F4DA
:101EC000802159609868804901409960116841F407
:101ED000897141F001011160996821F470119960D4
:101EE000996821F070419960116821F446411160B0
:101EF000D96821F03001D960D96841F03001D9604A
:101F0000D96821F47011D960136843F0007313602D
:101F1000136823F08063136006F03EFD01210A2060
:101F200009F0F8F901210A2009F00CFA67480121AB
:101F300005604460FFF7BAFE07F028F9012115207B
:101F400009F0E8F90121152009F0FCF960480121A8
:101F500005604460FFF7AAFEFFF714F8642106F05D
:101F600099FE10B95B480CF02FFE09F00FFA02F051
:101F70002DF910B958480CF027FE4FF4FA6006F01E
:101F8000C4FCFFF78DFE09F0A5FB0AF073FC534972
:101F90000AF07CFD0AF06CFA02460B4650480CF041
:101FA000A1FD09F08BF8052804AC14D1002363606F
:101FB0004C4B1B682360FFF773FE4B4B4B48D96CAF
:101FC0001A6D5B6D00940CF08DFDFFF769FE41F218
:101FD000883006F09AFCFEF769FA4549FFF77CFE67
:101FE000054668BB43480CF07DFD03F0D9FAFEF7C7
:101FF0005DFA29462A4600F2352005F0EFF83E4BFF
:102000003E4A00280CBF104618460CF0DDFDFEF7D6
:102010004DFA3749FFF760FE90B939480CF0D4FD0E
:1020200003F040FA014637480CF05CFD03F02AFA51
:10203000054603F037FA00FB05F133480CF052FD7A
:10204000324E334F336813F0010516D1304609F094
:1020500033FF90B14FF40E70FEF712F9012380F8B0
:102060003432312380F835323A2380F8363280F822
:1020700037523860304609F02BFF26493868264D24
:10208000FFF72AFE18211148FFF710FEFFF708FEA0
:102090002B684BB90820FEF7F3F80646FEF772FFEF
:1020A0003823306033712E60286802F081F90546CC
:1020B000B0BB1A480CF088FD33E000BF00C0092017
:1020C00020C0092000C00240F0FCFCFF00000340DB
:1020D00000800840184B0200494B0200002474495C
:1020E0006E4B02004440024000400240864B02001A
:1020F000FE4B0200064C02000C4B0200074B020094
:10210000434C0200624C0200714C02002CC30720B9
:1021100030C30720884102007CC307208C4C02009A
:102120000125FFF743FE02F043FA064618B972484C
:102130000CF04AFD3546FFF719FE02F0BBF90646E2
:1021400018B96E480CF040FD35466D4E33681BB92A
:102150000120FEF795F83060306802F079F9FFF75A
:1021600039FE02F011FAFFF713FE02F0DCF9FFF777
:102170003DFE02F00EFAFFF70BFE002102F0D6F949
:102180008DB9FFF78DFDFFF7F1FD2D2102F07AF9F2
:10219000FFF7ECFD2D2102F081F9FFF7F9FDFF219A
:1021A00002F0C4F90CE0FFF7E1FD0546FFF7FEFD84
:1021B00002F028FA0AF0A2FDC1B2284602F096F910
:1021C0001022002120460BF000FB00230F222146A5
:1021D0004C4802F0A3FA80B920460AF046FFC5B287
:1021E000284601F079F9484A484B2946002818BF8B
:1021F0001346444A46480CF075FCFFF7EBFD02F02D
:10220000C5F9054600200EF017F828440CF0E4FC50
:102210004FF40072002120460BF0D7FA204609F057
:10222000F5F821463B480CF05DFCFFF739FD8022B4
:10223000002120460BF0C9FA204603F00FF922785E
:10224000FF2A04D0214634480CF04CFC29E0FFF76B
:10225000CDFD02F0A1F909281DD130480CF0B4FCE5
:1022600021462F480CF0C4FD21462E480CF03AFCC4
:102270002D480CF0A9FC002303A92C4803930CF073
:10228000B7FD9DF80C30592B03D1204603F0C4F85C
:1022900007E0274803E027480CF096FC26480CF09E
:1022A00093FC4FF208031D684FF20C031C684FF2B9
:1022B00010031E684FF470431A684FF20403AD0A0E
:1022C0001968A40A1D480CF00DFC2A4621461C483A
:1022D0000CF008FC31461B480CF004FCFFF7E0FC56
:1022E000012005F0CBFC18480CF06EFCFFF7D8FC81
:1022F0000DF5057DF0BD00BFA74C0200C14C0200EA
:1023000078C30720DA4C0200124B0200124502008B
:10231000E04C02000A5F0200144D0200304D020042
:10232000524D0200574D0200724D0200B54D0200A1
:10233000B94D0200D14D0200FF4D0200314E0200A6
:102340005D4E02008A4E0200A74E02000120704737
:10235000012070470120704710B5044C23681BB959
:102360000120FDF78DFF2060206810BD78C3072095
:102370000120704738B504460F4B00250360636D9C
:10238000E06DAB4205D950F82500FDF77BFF013524
:10239000F5E708B1FDF778FF0025A36B206CAB4291
:1023A00005D950F82500FDF76DFF0135F5E708B1B7
:1023B000FDF76AFF204638BDE04E020010B5044626
:1023C000FFF7D8FF2046FDF75DFF204610BD2DE941
:1023D000F04104460E46C06889000CF05FFCA56819
:1023E000E060AF004FF00008AE420DD90C20FDF7C1
:1023F00047FFE368C0F80080C0F8048080F80880D8
:102400000135D8510437EFE76660BDE8F081FFFF82
:10241000F7B5044600250B464FF480520095254938
:1024200005F0A0FF244B042623606663A563E563E3
:102430002564022104F13400FFF7C9FF26656565B4
:10244000A565E565284660210CF028FCA56DE065D2
:10245000AE00172D0CD81020FDF712FF07461022F2
:1024600000210BF0B2F9E36D01359F510436F0E71E
:1024700018236365012384F87030104E0023A4F8FC
:102480007430A4F87630A367002200230027C4E943
:102490002023C4E9226708F0A3FF4FF47A720023D7
:1024A0000AF04CFC80197941C4E92001204603B0B0
:1024B000F0BD00BFF84E0200E04E0200C0D40100A3
:1024C0002DE9F0410F7A14464D680E688FB1082A45
:1024D00023D1284605F0B7FF00281CDD4FF0FF325E
:1024E0001349304606F0AAFF0121284606F0AAF853
:1024F00008E00A2A19D00D2A12D02146284606F0F3
:10250000C2F997B1336821463046BDE8F0415B68B7
:102510004FF0FF3218470724F4E70A2A02D1F1E707
:10252000BDE8F0810D2AEDD0E7E7BDE8F08100BFFE
:10253000014F0200F8B50446142015460F46FDF77A
:102540009FFE8021064606F04EF9A36BE26B9A428D
:1025500006D3616B591803D204F13400FFF737FF3B
:10256000E36B226C591C52F82330E1631F605E60FC
:102570001D72F8BD2DE9FF47CF6B06460D4601AC35
:102580003FB94FF47A7008F05BF901976760A76074
:1025900047E00B6C0DF110081B6893E8070084E816
:1025A0000700002308F80D3D08F012F881460027C7
:1025B000EB6B9F4263D22B6C4FEA870A53F82730AC
:1025C0001868037C002B34D0036800221B68414646
:1025D000984770B3EB6B9F422DD22B6C53F80A30A7
:1025E00093E8070084E807009DF803202146284669
:1025F000FFF766FF08F0F4FE4FF47A7200230AF04A
:102600009DFBD5E9222380185941C5E92001029894
:1026100005F019FF0746029805F018FF01388742B8
:102620000CDB94E8070086E80700304604B0BDE8FC
:10263000F0870137BCE705F14403D1E7D5E9222350
:10264000134324D008F0CCFE4FF47A7200230AF032
:1026500075FBD5E92023994208BF904217D308F0B3
:10266000BFFE4FF47A7200230AF068FBD5E92223FB
:10267000801859410023C5E920010193D1E707F0F3
:10268000A7FF8145C3D1022008F0DAF8BFE79DF823
:1026900003300A2B88D1C4E7F0B5054685B0204841
:1026A0000CF020FA294601A8FFF764FF019C1CB931
:1026B0001C480CF089FA30E0029E304605F0C3FE5B
:1026C00000282ADD08F08CFE0746F8B1B5F8743012
:1026D00005F150000133A5F874302246314605F06B
:1026E000E9F8114B00251868009023681DF80510C3
:1026F0005B684FF0FF32204601359847042DF4D136
:1027000008F06EFEC11B09480CF0ECF9304605F0EC
:102710009FFE236820469B689847012005B0F0BDC6
:10272000044F020079440200D44E02000A4F020016
:1027300038B5064C236833B92C20FDF7A1FD0546BA
:1027400006F0F2FD2560206838BD00BF28C30720D1
:1027500010B50446FFF7ECFF03682146BDE81040C2
:102760005B684FF0FF32184713B5002302AC04F842
:10277000013DFFF7DDFF03684FF0FF321B68214684
:1027800098479DF8070002B010BDFFFF2DE9F0410A
:1027900000F150048AB000250646009520465B4BA8
:1027A0005B4A5C4904F0A6FF009520465A4B5B4A01
:1027B0005B4904F09FFF009520465A4B5A4A5B49FB
:1027C00004F098FF00952046594B5A4A5A4904F0A4
:1027D00091FF00952046594B594A5A4904F08AFF07
:1027E00000952046584B594A594904F083FF0095FB
:1027F0002046584B584A594904F07CFF0095204622
:10280000574B584A584904F075FF00952046574BDE
:10281000574A584904F06EFF00952046564B574AD8
:10282000574904F067FF00952046564B564A5749D2
:1028300004F060FF00952046554B564A564904F077
:1028400059FF00952046554B554A564904F052FF12
:1028500000952046544B554A554904F04BFF0095CE
:102860002046544B544A554904F044FF00952046F5
:10287000534B544A544904F03DFF00952046534BB6
:10288000534A544904F036FF00952046524B534AB0
:10289000534904F02FFF00952046524B524A5349AA
:1028A00004F028FF0095524B524A5349204604F049
:1028B00021FFFFF73DFF4FF4807320224FF41641B4
:1028C000054606F011FD804601272F744B48FDF7A1
:1028D00051FD4B48FDF748FD3A4629463046FFF783
:1028E00029FE082203A905A805F086FD05A845498B
:1028F00005F0F4FF2A4605A9204604F0DBFF05A8F1
:1029000005F08FFD40460AB0BDE8F081204F02007F
:10291000624F02003D050100574F0200674F020061
:10292000250601006F4F02007D4F0200A50F010038
:10293000844F0200C54F020049060100CA4F020041
:10294000265002001D0901002A500200B850020062
:102950009D0801006C500200B75002001D0D0100DF
:10296000BB500200E9500200210A0100EC500200B5
:1029700011510200990B010017510200445102004D
:10298000110C010047510200896A02006D0C010020
:102990006C5102008F510200D50B010092510200D0
:1029A000655202004911010069520200AC52020056
:1029B0005D0E0100B4520200C75202001D0F01005B
:1029C000CE520200CD5302000D070100D153020088
:1029D000F95302004D0F0100FF530200654B020046
:1029E00061170100295402001D55020095130100D2
:1029F000E6540200CB410200E11201006927010008
:102A000051270100554802007047FFFF30B50020F4
:102A1000ADF50F7D05F0E4FC03AC4FF47A720021B4
:102A20000546204606F086F91949204606F0C4F905
:102A3000412105A801F026FC432107A801F022FC52
:102A4000422109A801F01EFC009409AB07AA05A9C0
:102A50000BA800F087F80BA800F09BFA00240023D5
:102A60004FF47A7204A9284607F002FB0028F6D03A
:102A700001230093E2B20BA8049B0021083400F06C
:102A8000D7FA22460021034805F039FAE7E700BFEC
:102A9000000048424C55020010B50446FDF7F2FB19
:102AA000204610BD13B50446002300934FF4006286
:102AB0000123044905F056FC2046034B236002B075
:102AC00010BD00BF615502008C5502007047FFFF2A
:102AD00030B50E4B85B001AC93E8070084E80700E1
:102AE0002546002005F07CFC00234FF47A72214635
:102AF00007F0B8F90128F4D12968054805F0FFF975
:102B000041F28830043407F09BFEE9E7A455020047
:102B1000BC55020010B50446FDF7B4FB204610BDBD
:102B200037B505460024009401234FF400620A499A
:102B300005F018FC094B22462B600421012007F008
:102B40006FF90146204605F027FC054805F0D7F946
:102B5000284603B030BD00BFCE5502001856020013
:102B6000DD5502002DE9F74F0446019320230F465F
:102B70004374002121231646017483744FF4FC72C0
:102B800013300AF022FE1E2384F83F300E2384F80F
:102B900040300223FE22E021F8204FF0FC0E0F25EA
:102BA0004FF0030C4FF01F084FF03F094FF07F0A22
:102BB0004FF0F00B84F84130FF2384F8361084F88E
:102BC000380084F83B2084F83C2084F83D2084F8C9
:102BD0003E2084F88F3084F8903084F8913084F867
:102BE000923084F8933084F8942084F8960084F826
:102BF000970084F8990084F89A2084F89B2084F840
:102C00009D0084F837B084F839E084F83AE084F81D
:102C10008AC084F88B5084F88C8084F88D9084F876
:102C20008EA084F895E084F898B084F89CE084F84D
:102C30009E1084F8D500204684F8D72084F8D82048
:102C4000F32284F8DB20C02284F8DE2084F8DF2021
:102C500084F8E020F12284F8E3203E2284F8DC109E
:102C600084F8DD1084F8E11084F8E21084F8F32091
:102C70000121072284F8D93084F8DA3084F8E4306E
:102C800084F8E53084F8E63084F8E73084F8E830FA
:102C900084F8E93084F8EA3084F8EB3084F8EC30DA
:102CA00084F8ED3084F8EE3084F8EF3084F8F030BA
:102CB00084F8F13084F8F23084F8293184F8D6E0D1
:102CC00084F82A3184F82B3184F82C3184F82D31A2
:102CD00084F82E3184F82F3184F8303184F8313182
:102CE00084F8323184F8333184F8343184F8353162
:102CF00084F8363184F8373184F8383184F8393142
:102D000084F83A3184F83B3184F83C3184F83D3121
:102D100084F83E3184F83F3184F8403184F8413101
:102D200084F87D3184F87E3184F87F3184F88031F5
:102D300084F842A184F8439184F8448184F84521C1
:102D400084F8461184F8813184F8823184F8833123
:102D5000019B84F884A1A3600C9B84F8859184F87E
:102D6000868184F8875184F8885184F8895184F8E1
:102D70008A2184F88B2184F88C2184F88D2184F8B1
:102D80008E2184F88F2184F8902184F891C184F8F1
:102D900092C184F8931184F8941184F8D19184F845
:102DA000D28184F8D35184F8D42184F8D5C184F831
:102DB000D61127606660E36003B0BDE8F08F00685D
:102DC00001F09FBA006801F096BA406801F093BA2A
:102DD000406801F096BAFFFF38B504460D46FFF78C
:102DE000F7FF2046FFF7EBFF2A78064B9A60DA6878
:102DF000D206FCD4034B20469B68BDE83840FFF761
:102E0000E1BF00BF0000034038B504460D46FFF7A0
:102E1000DCFF2046FFF7D3FF2A78064B9A60DA687A
:102E2000D206FCD4034B20469B68BDE83840FFF730
:102E3000C9BF00BF000003401FB50446437C8DF8A6
:102E4000071004A901F8013DFFF7C6FF0DF10701C6
:102E50002046FFF7C1FF04B010BD1FB50446837CB8
:102E60008DF8071004A901F8013DFFF7B5FF0DF13A
:102E700007012046FFF7B0FF04B010BD38B5044687
:102E8000154641F08001FFF7D7FF45F0400120468D
:102E9000BDE83840FFF7D0BF542930B515D8302AE7
:102EA00013D802F007045425D20805FB021210447F
:102EB000012223B102FA04F3C27C134304E002FAB4
:102EC00004F3C27C22EA0303C37430BD38B5044660
:102ED000406801F008FAA06801F005FA206801F0E6
:102EE00002FA01210A2008F015FA0E4D01210A20EC
:102EF00008F028FA022407232B606C6008F0EAFB34
:102F0000094BB0FBF3F02346B0FBF3F2012A04D9DE
:102F1000B3F5807F01D00233F6E72B61BDE838407E
:102F200006F034B90000034040420F0010B50446DB
:102F3000FFF745FFA06801F0E4F9A06801F0DBF9B4
:102F40002046BDE81040FFF73DBF002270B5114696
:102F50000546FFF793FF05F1130405F20B26214602
:102F600028460134FFF750FFB442F8D170BD00F19C
:102F7000120300F20A2231B1002103F8011F93422B
:102F8000FBD1FFF7E2BFFF2103F8011F9A42FBD1FB
:102F9000F7E710B50446FFF799FF2046FFF7C6FF95
:102FA0002046B021FFF759FF20460421FFF755FFC7
:102FB00020461421FFF751FF20460C21FFF73CFF6C
:102FC00020460121FFF7D3FF012010BD2DE9F74F67
:102FD00007468A4693469DF83080144A03EB8303E4
:102FE0009E1888F001030025019316F8013F002484
:102FF00000930AEB0509009B0BEB0402234113F03D
:10300000010F14BF4346019BD2B25FFA89F13846E3
:103010000134FFF741FF082CEDD10135052DE4D136
:10302000384603B0BDE8F04FFFF78FBF9D55020053
:103030002DE9F34107460C4615469DF820805E1E9B
:1030400016F8013F73B121460634CDF800802A46B8
:103050003846E4B2FFF7BAFF4F2CF1D90835EDB28C
:103060000024EDE702B0BDE8F081704708B501F03B
:10307000E3F8012008BD10B50446FDF703F920462A
:1030800010BDFFFF37B59020FDF7FAF80446032185
:10309000FFF7BEF9204605F037F93420FDF7F0F8C8
:1030A000054600244FF4007211490094042305F0F2
:1030B00059F9104B28462B6005F026F93420FDF70E
:1030C000DFF80546FFF7EEFC284605F01DF9342031
:1030D000FDF7D6F80546FFF723FD284605F014F95D
:1030E0002046214605F01EF94FF0FF3003B030BDF9
:1030F000654B02004458020010B54FF6FF742423BC
:1031000003FB0101884209D043782BB1038C13449F
:10311000A34228BF234603842430F3E710BDFFFFFA
:1031200037B5002302A840F8043D0C4B04215B682E
:1031300098470B4B019A1C680546141B1A60042122
:1031400022460848FFF7D8FF224602210648FFF72B
:10315000D3FF281C18BF012003B030BD80C3072057
:1031600050C4072094C307206DC4072008B50B4B3B
:10317000197803788B420A4B0BBF1A889A88013260
:10318000013214BF9A801A80064B8170DB682021BF
:103190009847003018BF012008BD00BF05C00720B8
:1031A00025C4072080C307200A4B02781B789A4267
:1031B000094B0BBFDA881A89013201320CBFDA8061
:1031C0001A810379C3F3C202073262F3C5030371A4
:1031D000FFF7CCBF05C0072025C4072010B507495D
:1031E000002311F823409A00844202D1034810447E
:1031F00010BD0133042BF4D1002010BD3FC40720C3
:1032000070B1C3780133DBB2FF2BC37008D105481E
:103210000023C118CA7804335208102BCA70F8D1A1
:10322000704700BF3FC40720242202FB0101034670
:10323000024630B5914206D01446243212F8235C7F
:10324000002DF7D10FE00446002599420BD01A79E2
:10325000C2F3C2001A8C42EA0042AA4284BF1C4652
:1032600015462433F1E7204630BDFFFF38B505464B
:10327000C90001F10804FFF753FF1C4B2A781B78A3
:103280009A4204D102211A48FFF7CEFF0CE0042134
:103290001848FFF7C9FFEB7833B990F823300424BE
:1032A00043F0800380F82330002380F8203080F83A
:1032B000213002462B4690F8231080F8224021F05E
:1032C0007F01C4F306240C4380F8234005F120015C
:1032D00053F8044B8B4242F8044BF9D1064A037968
:1032E000127862F3C503037138BD00BF05C0072023
:1032F0006DC4072094C3072004C0072008B5FFF75A
:103300006DFF0346D8B9FFF769FF0346B8B90D4A08
:10331000D378D179D07A8B4296BF1946131D1346C4
:10332000814294BF0846084BD17B084A814238BF8E
:103330001346074900221A60CA7A0132CA72184637
:1033400008BD00BF3FC4072047C407204BC4072067
:1033500025C407202DE9F84F05460C464FF02409F7
:1033600009FB0219DFF868A1DFF868B14E1C4FF0C5
:1033700000084C4500F09A8094F823301A0624D5B2
:10338000B5B12A7861788A4205D16F7816F8010CB8
:10339000874200F08D80E87850B16878884207D184
:1033A00016F8011C914203D1A979A27991427FD0EC
:1033B00094F82220218C03F07F0342EA03239942F0
:1033C00071DB2046FFF7D2FE72E06278002A6AD0F5
:1033D0006DB3297901F0C001C02917D116F8010C8D
:1033E0006978884202D12878904261D0E778A8783D
:1033F00087420CD191420AD116F8010C29788842F3
:1034000005D1A079A979884201D151E079B1A87894
:10341000E17888420BD16978914208D116F8010C05
:103420002978884203D1A079A979884246D094F8B6
:103430002210208C03F07F0341EA0323984232DB01
:10344000237984F82080C3F3C201CFB284F82180AD
:103450001FB12046FFF7A8FE25E003F0C003C02BF4
:1034600019D016F8010C9AF80030984213D1E3787D
:103470009A4210D07BB16379032262F30713637120
:10348000E1702046FFF790FE23799BF8002062F35D
:10349000C503237100E001276078FFF79FFE08B1A4
:1034A000C0F8008027B92434243662E7BDE8F88FDD
:1034B0002422002120460AF088F9F4E7237984F8D1
:1034C00020806FF3C50384F821802371EBE700BFF0
:1034D00005C0072004C00720431EDBB2FD2B9DBFA3
:1034E000024B187001200020704700BF05C0072064
:1034F000014B1878704700BF05C0072007289CBF04
:10350000014B1870704700BF04C007202DE9F74336
:10351000044691461E469DF828500F46002966D065
:10352000364B93F80080414563D00F2E61D80028B8
:1035300061D0202200210AF048F9FF2F237914BF1F
:1035400009F00302002262F38713032262F30203ED
:103550002B4A6770127884F8008062F3C503294A09
:103560002371137884F802800133DBB21370A371E6
:103570000BAB019315B94FF001081BE004F10809EA
:10358000019AE0791346526853F8081B00EB0208D1
:103590005FFA88F8013DB8F1180F0193EDB207D832
:1035A00048440AF0ECF884F80780002DE8D1E2E7FF
:1035B0004FF00008DFF850900123384689F80030BA
:1035C000FFF70CFE0546FFF71BFE002389F80030CD
:1035D000637925B966F307136371E57005E0AA788E
:1035E00062F3071363716B78E370404603E00846AB
:1035F00001E00020FFE703B0BDE8F08305C007202D
:1036000004C0072024C4072031C40720124B012224
:1036100070B51A7004461E4608B9002518E0FFF779
:10362000A5FD05460028F8D0237903F0C003402B00
:1036300006D0C02B0AD1E37853B162789A4207D002
:10364000617920460909FFF711FE01E0802BF7D0D0
:1036500000233370284670BD31C4072082B02DE9A5
:10366000F0439146421ED2B28DB0FD2A05460E4669
:1036700015939DF8688001D9002057E0002BFBD0FE
:10368000179F002FF8D0199B002BF5D0189B002B0B
:10369000F2D0169B002BEFD04822002126480AF0DA
:1036A00094F89022002125480AF08FF8102200217A
:1036B00023480AF08AF8234B00241C605C609C605D
:1036C000214B1C605C609C60204B1D70204B214D89
:1036D0001E7015AE0FCE0FC53368182221461E4846
:1036E0002B600AF072F8494617221B480BF0B4FD14
:1036F00021462046B8470028BED0B8F1000F02D1BD
:10370000FFF70EFD12E006230293144B22460193AD
:1037100001230093FF2104A8FFF7F8FE0028ABD097
:1037200004A8FFF773FF0028A6D0E9E70DB0BDE8B5
:10373000F04302B0704700BF6DC4072094C3072058
:103740003FC4072033C4072025C4072005C0072035
:1037500032C4072080C3072054C407205C580200ED
:1037600030B5182B8DB016D8B2FA82F41D1C18BFD4
:1037700001256409AC420ED00293019200950A46DD
:103780009DF84030014604A8FFF7C0FE18B104A818
:10379000FFF73CFF00E000200DB030BD13B55379BA
:1037A00014781B09009302460B4620460321FFF7BD
:1037B000D7FF02B010BDFFFF00231A4630B5084CFA
:1037C00014F82350990035B1904202D104480844BE
:1037D00030BD0132D2B20133042BF1D1002030BD13
:1037E0003FC4072000231846044A12F8231009B1E9
:1037F0000130C0B20133042BF7D170473FC407201A
:103800002DE9F04188B020220021684609F0DDFF53
:10381000A14B1B7803F0FF04002B40F039819F4F30
:1038200020213B6968469847002800F084809C4D21
:103830006B8801336B80FFF7D5FF9DF80420A872D9
:1038400002F00703032B04D0964A137843F00103D8
:1038500009E0954B1D789DF80230AB4205D1914AA5
:10386000137843F002031370E4E0C2F3C2029DF840
:1038700000E09DF806008D49D6B204EB440313F82E
:1038800001C0F4450BD10B4493F801C0844506D127
:10389000997801248E1B18BF01269A7018E0013414
:1038A000042CEAD182490B689A70804A587002F160
:1038B0000900834283F800E040F0C9800A609DF867
:1038C00000009DF80230834240F0C4800024264668
:1038D0009DF80200FFF712FD9DF8022002709DF88E
:1038E0000220427000228270FFF78AFC04B116B3F6
:1038F0009DF80030AB4200F09C809DF80160FF2EE7
:103900001BD13B6820216846984720B9654A137847
:1039100043F0040313709DF8053003F00F02511CAF
:1039200061F303038DF80530C3F303139A4202DAFF
:103930006846FFF71BFC00247CE0B5422BD164B93C
:103940009DF807304BB13B6820216846984720B965
:10395000544A137843F0040313709DF8043003F0C5
:10396000C003402B12D19DF807306A4613B91821C5
:10397000504808E00C214A48FFF710FF002858D1B2
:1039800000216A460846FFF709FF52E09DF8033020
:10399000002B4ED1F4E7484B1B78002BCBD09DF881
:1039A000054004F00F074FEA14184745C3DA013702
:1039B00067F303043046FFF711FC8DF805409DF8CE
:1039C0000340A54221D19DF8041001F0C001402917
:1039D00006D0A1F180035A425A41144610B90CE0B6
:1039E000012260B1C029437805D19E4203D0003343
:1039F00018BF012304E0002302E0C0290ED10346D2
:103A0000134303F0010420B908E094B908B9414612
:103A10000CE043788DF80330857802E000258DF8BE
:103A200003506846FFF7A2FB1CB129466846FFF722
:103A30001DFC6C46FFF774FB204604221F49FFF76C
:103A400089FC02221E492046FFF784FC20E0033354
:103A50000B6034E785423FF439AFFFF74FFC044673
:103A6000FFF7CEFB23783BB19DF80530A27803F039
:103A70000F0393423FF72AAF9DF8003023709DF863
:103A8000023063709DF80530C3F30303A3701DE794
:103A900008B0BDE8F08100BF31C4072080C3072013
:103AA00025C407206CC4072005C0072033C40720A5
:103AB00000C0072054C4072032C4072094C3072045
:103AC0006DC4072000231846094AD118497809B166
:103AD0000130C0B22433902BF7D1064B5A780AB18B
:103AE0000130C0B293F825300BB10130C0B270473D
:103AF00094C307206DC4072008B5FFF76FFB064B82
:103B000028B18278187802FB0000C00008BD187840
:103B10001823584308BD00BF04C0072003490B68A1
:103B200003604B6843608B688360704725C407203F
:103B300070B53E4C4FF48035E5613D4CA0602046A9
:103B4000C5683B4CED06FBD4A0680D46C0B20BB96E
:103B500023465FE02346002A63D0072A0E782DDD36
:103B60009E604E78083A9E608E789E60CE789E6009
:103B70000E799E604E799E608E799E6001F10806F6
:103B8000C979996099694907FCD5A1682970A1682C
:103B90006970A168A970A168E970D968C906FCD4E8
:103BA000A168083505F8041CA16805F8031CA16884
:103BB00005F8021CA16805F8011C1AE0032A1ADDA9
:103BC0009E604E78043A9E608E789E600E1DC97885
:103BD0009960D968C906FCD4A168043505F8041CAD
:103BE000A16805F8031CA16805F8021CA16805F886
:103BF000011C3146AFE701319E60013ADE68F606EE
:103C0000FCD4A668013505F8016CA4E7E668F60661
:103C1000FCD4A6686E1AB24203DD15F8016B9E60F3
:103C2000F4E7024B4FF480329A6170BD00C0092066
:103C30000080084007B5002302A901F8013D0123D7
:103C40001A4600F01F00FFF773FF9DF8070003B04E
:103C50005DF804FB13B502AC04F8011D00F01F0071
:103C600000230122214640F02000FFF761FF02B04F
:103C700010BD08B51720FFF7DDFFC0F3001008BD29
:103C800070210720FFF7E6BF0A4600230146A02067
:103C9000FFF74EBF08B50020FFF7CCFFBDE8084096
:103CA00000F0FE010020FFF7D5BFFFFF024B4FF0F1
:103CB0008072DA61704700BF20C0092008B500207B
:103CC000FFF7B8FF40F00101C9B20020FFF7C2FFC3
:103CD000024B4FF080729A6108BD00BF20C00920DE
:103CE00020210720FFF7B6BF00231A461946E1201E
:103CF000FFF71EBF37B504460D46FFF7F5FF204618
:103D00002946FFF7C1FF0D4B4FF080721C469A61A8
:103D10000022ADF80620BDF8063001339BB2ADF8A5
:103D2000063033B94FF08073E361FFF7DDFF03B076
:103D300030BDFFF79EFF0028EDD0F3E720C009203B
:103D400008B51720FFF776FF00F0010080F00100B2
:103D500008BD40210720FFF77DBF08B50A460123B3
:103D600001466120FFF7E4FEC0F3420008BD0023D6
:103D70001A461946E220FFF7DBBE70B50646002062
:103D80000D461446FFF756FF16B100F0BF0002E0E3
:103D900040F04000C0B215B100F0DF0101E040F09A
:103DA000200114B101F0EF0101E041F01001002009
:103DB000BDE87040FFF74EBF10B504460020FFF786
:103DC00039FF14B900F0F7010DE0012C04D100F027
:103DD000FB0141F0080106E0022C14BF40F008018D
:103DE00040F00C01C9B20020BDE81040FFF732BF1F
:103DF00008B50020FFF71EFFBDE8084040F00201B3
:103E0000C9B20020FFF726BF08B50020FFF712FF58
:103E1000BDE8084000F0FD010020FFF71BBF40F6A1
:103E2000DD13984206D840F66213B0F5166F38BF1E
:103E3000184600E01846A0F51661C9B20520FFF744
:103E400009BF10B504460620FFF7F4FEFA2C00F077
:103E5000D70102D141F0200104E0B4F5FA6F08BFA8
:103E600041F008010620BDE81040FFF7F3BE10B591
:103E700004460620FFF7DEFE032C28BF032420F0B3
:103E8000060040EA4401C9B20620BDE81040FFF731
:103E9000E1BEF9284FF0FA0305D9B0F57A6F88BF73
:103EA0004FF47A6000E01846B0FBF3F00F2900F100
:103EB000FF30C0B228BF0F2141EA0011C9B204206F
:103EC000FFF7C8BE1130C0B2162804D8202928BF79
:103ED0002021FFF7BFBE7047032804D0042814BF79
:103EE0000321022100E001210320FFF7B3BE0A46AF
:103EF000002301463020FFF71BBE0A46002301467F
:103F00002A20FFF715BEFFFF73B50E46154604467F
:103F1000FFF72DFFFFF7E8FE2B4B4FF08072DA61C1
:103F2000FFF772FF002211460120FFF726FFFFF77F
:103F3000A7FE0220FFF740FF3046FFF770FF28463C
:103F4000FFF77FFF0320FFF792FF03210220FFF717
:103F500081FE00210120FFF77DFE03214FF4FA705E
:103F6000FFF797FF21460020FFF7ACFF002112204A
:103F7000FFF770FE00211320FFF76CFE00211420D4
:103F8000FFF768FE00211520FFF764FE00211620D0
:103F9000FFF760FE0D4B18681B79009005208DF827
:103FA0000430FFF799FF68460521FFF7A0FF0521C0
:103FB0006846FFF7A2FFFFF71BFF4FF4FA6004F01B
:103FC0008FFC02B070BD00BF20C009206358020002
:103FD00070B5174E326822B92021032005F020FF6A
:103FE0003060144D2A6822B92021012005F018FF05
:103FF0002860114C216821B90322012005F010FF2F
:1040000020604FF4FA6240F6C3112020FFF77CFFD6
:10401000FFF754FE1620094A012104F023FE306800
:1040200028B1286818B12068003018BF012070BD81
:10403000BCC40720B8C40720C0C40720E940010061
:1040400070B50379014603F0C003C02B0CBF0E4BC3
:104050000E4B88B01D68002306461A46284605F018
:1040600001FF044660B9034602466946284605F04A
:10407000FFFF234622463146284605F0F3FE04465C
:10408000204608B070BD00BFB8C40720BCC40720DC
:1040900038B504460D46FFF72BFA237883420AD041
:1040A000E37843B90AF0C0FDBD2300F0030000FB34
:1040B000033004F015FCFFF7F9FDFFF7EBFDA9B2A3
:1040C0002046FFF717FEFFF70BFEFFF7F7FD06F0A0
:1040D000D3FD022804D1034B0021186805F096FF98
:1040E000012038BDC0C4072007B5002302A941F84C
:1040F000043D084B186805F089FF019B3BB1064B56
:104100004FF080521A60BFF34F8FBFF36F8F03B031
:104110005DF804FBC0C4072004ED00E038B5044698
:104120000D46FFF70DFE48B1A9B22046FFF715FE78
:10413000FFF706FE08B9FFF70CFE012038BD2DE998
:10414000704305460E46144606F096FD022807D138
:10415000224600233146284605F08AFFC4B21DE0FE
:1041600007F03EF94FF47A72002308F0E7FD10EBF8
:10417000040841F1000900231A463146284605F09B
:1041800077FFC4B254B907F02BF94FF47A720023C9
:1041900008F0D4FD894508BF8045ECD22046BDE833
:1041A0007083042938B5054603D1041C18BF0124C7
:1041B00000E0002407F014F92CB14FF47A720023C8
:1041C00008F0BCFD2860204638BDFFFF00B50C4B51
:1041D0008DB009930B4B0C4A0B930C4B0A930CAB11
:1041E00043F8102D002204920FCB8DE80F00084BEE
:1041F000084A01216A20FFF731FA0DB05DF804FB8F
:10420000D13F01001D410100A34101009140010087
:104210004140010068580200024B0A4601461868F6
:10422000FFF78DBFBCC40720024B0A460146186841
:10423000FFF785BFB8C4072008B506F01DFD0F4B7A
:1042400002285B6913D15A020DD5FFF73BFC002809
:104250000B484FF0000314BF01224FF0FF32194604
:10426000006805F005FFBDE80840FFF7C9BA5B022A
:10427000F9D5FFF727FC0028F5D108BD00C00920BB
:10428000C0C40720F0B5864687B0114F4C1101F02D
:104290001F0501AE457004700FCF0FC670463B6816
:1042A0000321336006AB03EB840353F8143C6D0029
:1042B000CEF80430E30003F1804303F530331A688D
:1042C00001FA05F522EA05051D6007B0F0BD00BF43
:1042D00070580200416840780A680123834022EA4E
:1042E00003030B607047416840780A6801238340EC
:1042F00013430B6070474178426801238B40936100
:1043000070474178426801238B40D3617047FFFFBB
:1043100030B543780578064C5B0054F8352003210E
:1043200001FA03F322EA030344F8353030BD00BF3D
:1043300040C0024010B5094A04780123407821B1F9
:1043400052F8241083400B4304E052F824108340B9
:1043500021EA030342F8243010BD00BF68C00240C8
:1043600010B50446FFF7B6FF00212046FFF7E2FF35
:104370002046FFF7CDFF204610BD13460A460179BF
:10438000006805F080B91FB5002204AB047923F85A
:10439000042D0222009200680A46214605F05EF9CB
:1043A0009DF80C009DF80D3043EA002004B010BDCC
:1043B00010B5044619222A21FFF7DFFF0D222179CB
:1043C000206805F04FF9A0F12A035842584110BD6A
:1043D000044A13881F2B9FBF581C1080024A42F8C2
:1043E00023107047C8C40720CCC40720154AF0B575
:1043F00013881646012B21D9134A00201546013B8C
:10440000984206DA516814680130091B42F8041B0F
:10441000F6E700210C466A684FF0010E02EB5200ED
:104420008AB2934208DD55F822700131B8423CBF90
:104430000EFA02F21443F3E7044B1C6000233380AE
:10444000F0BD00BFC8C40720CCC40720C4C40720E7
:1044500008B50121022006F05DFF084B01209A6A91
:1044600022F007029A629A6A42F006029A62044AAD
:10447000D36843F03003D36008BD00BF0080004024
:1044800000C0024008B5044B417101F07F015A5C45
:104490000321FFF772FF08BD8458020008B5044BE2
:1044A000817101F07F015A5C0221FFF766FF08BDB0
:1044B0008458020038B504460179006805F0EEF82A
:1044C000054688B1002206212046FFF756FF00224C
:1044D00007212046FFF751FF2E212046FFF7D2FF8C
:1044E0002E212046FFF7DAFF284638BD642370B539
:1044F000B1FBF3F404FB1311CCB20A21B4FBF1F5C8
:1045000001FB15413031C9B20646FFF7C7FF092C40
:1045100088BF05F130013046BDE8704094BF2021CE
:10452000C9B2FFF7AFBF01207047FFFF38B50D4696
:10453000044606F0D9FC05F00F032370114B15F06B
:10454000010F4FF0010214BFDA619A61227812F074
:10455000020F4FF0020214BFDA619A61227812F062
:10456000040F4FF0100214BFDA619A61227812F042
:10457000080F4FF4807214BFDA619A61BDE83840C9
:1045800006F0C2BC20C0092001207047022004F0C0
:104590003DBA01207047FFFF044B5B69180B00F028
:1045A0000C00C3F341231843704700BF20C009200B
:1045B00010B5044681220121FFF7DFFE0122217997
:1045C000206805F04FF810F0600F14BF01200020A4
:1045D00010BD38B500210446FFF7D5FE812205B293
:1045E00001212046FFF7C9FE102095FBF0F008F0EE
:1045F00045F94FF0765108F095F9A16808F08AF86E
:1046000038BDFFFF08B5FFF7E4FF054908F08AF958
:10461000044908F03BFA4FF0844108F07BF808BDEC
:10462000000010410000A0402DE9F04FADF2546DA4
:104630000C4690460146012282A8994602F03EF8B7
:10464000002867D121460A220DF22C4002F036F8EC
:10465000044620B182A802F09AFA20465AE06D463C
:10466000064607462860019006F0BAFE4FF47A72BB
:10467000002308F063FB2B4683464FF4007202A927
:1046800082A802F0B5F88246E0B92A68D2B106F0F5
:10469000A7FE4FF47A72002308F050FBB0EB0B003A
:1046A000074406F09DFE4FF47A72002308F046FBA3
:1046B00001AB83462A6802A90DF22C4002F050F9A2
:1046C0008246B0B1B8F1000F01D0C8F80070B9F15E
:1046D000000F01D0C9F80060DDF8783603B11C6026
:1046E00082A802F054FA0DF22C4002F050FA504623
:1046F00010E001992A689142E4D106F071FE00238E
:104700004FF47A7208F01AFB2B68B0EB0B000644EA
:104710001C44A9E70DF2546DBDE8F08FF0B5ADF57E
:104720000B7D0E46174601461D460122002301A8B7
:10473000009301F0C3FF044670B91DB1294601A8DA
:1047400002F037FA6B463A46314601A802F050F8BB
:10475000044601A802F01BFA20460DF50B7DF0BDC2
:10476000F0B5ADF50B7D0E46174601461D460A22F3
:10477000002301A8009301F0A1FF044670B91DB108
:10478000294601A802F015FA6B463A46314601A8BF
:1047900002F0E6F8044601A802F0F9F920460DF50A
:1047A0000B7DF0BDF0B5ADF50B7D0E46174601460D
:1047B0001D461222002301A8009301F07FFF04464A
:1047C00080B90DB1294600E0049901A802F0F1F981
:1047D0006B463A46314601A802F0C2F8044601A8E9
:1047E00002F0D5F920460DF50B7DF0BD7F2810B500
:1047F00016D931B1FF2812D80A4B803833F810008F
:1048000010BD084A32F811408BB2844203D0013106
:104810008029F7D10B4603F18000C0B210BD002003
:1048200010BD00BF045902000649002331F81320CF
:1048300032B1824201D00133F8E7034A32F8130063
:10484000704700BF045A0200E45B020010B501206B
:104850000C4605F08BFB2060003018BF012010BD16
:104860000120704710B5044606F006FA02280AD166
:10487000002319464FF0FF32204605F0F9FB431E96
:104880005842584110BD012010BD10B5044606F035
:10489000F3F9022807D100232046BDE810401A464C
:1048A000194605F0DFBA10BD10B5044604F0DEFC71
:1048B00024B1012C06D100F081F901E000F002FDE5
:1048C000044600E0042404F0E9FC204610BD28B1B1
:1048D000012801D00420704700F028BA7047F8B5CD
:1048E00007460C4615461E4604F0C0FC3FB1012F9A
:1048F0000CD132462946204600F020FA04E0324628
:104900002946204600F02AFD044600E0042404F075
:10491000C5FC2046F8BDF8B507460C4615461E46B0
:1049200004F0A4FC3FB1012F0CD1324629462046A9
:1049300000F050FA04E032462946204600F030FDEF
:10494000044600E0042404F0A9FC2046F8BD70B53C
:1049500006460C46154604F089FC36B1012E0AD1F4
:104960002946204600F090FA03E02946204600F050
:1049700037FD044600E0042404F090FC204670BD9E
:1049800008B506F02DFD4FF47A72002308F0D6F931
:1049900008BDFFFF10B5044606F09CFE074BB0FBB8
:1049A000F3F00223B0FBF3F2944202D3044A136102
:1049B00010BDB3F5807FF9D00233F3E740420F001A
:1049C00000000340044B9860DA68D206FCD4024B26
:1049D0009868C0B2704700BF0000034070B5FFF791
:1049E000CFFF00F5FA74FF20FFF7ECFF0025FF2052
:1049F000FFF7E8FFFF28064605D0FFF7C1FFA942F1
:104A000008BFA042F3D3304670BDFFFF38B5064C57
:104A10004FF00075E561FFF7E1FF044AA5611378E7
:104A200043F00103137038BD20C0092006C00720E1
:104A30002DE9704306460D46FFF7A2FF643080461D
:104A40004FF00009FF20FFF7BDFFFF2808D1FFF757
:104A500097FF494508BF4045F4D30020BDE8708367
:104A6000FE28FAD1102D06D900224FF400713046ED
:104A700004F09AFB19E0341D0435FF20FFF7A2FF74
:104A800004F8040CFF20FFF79DFF04F8030CFF203F
:104A9000FFF798FF04F8020CFF20FFF793FF0434A0
:104AA00004F8050C2B1BDE42E7D1FF20FFF78AFF3D
:104AB000FF20FFF787FF0120BDE8708370B5064631
:104AC0000D46FFF78BFFFF28044619D12846FFF754
:104AD00079FFFD2D16D022464FF40071304604F0C8
:104AE00063FB2046FFF76EFF2046FFF76BFF204673
:104AF000FFF768FF00F01F00431F5842584170BD88
:104B0000002070BD012070BD020638B504460D4678
:104B100007D500217720FFF7F7FF012838D804F0E8
:104B20007F041C4B4FF000729A61DA61FFF756FF69
:104B3000FF28014628D12046FFF744FF280EFFF743
:104B400041FFC5F30740FFF73DFFC5F30720FFF71F
:104B500039FFE8B2FFF736FF402C17D0482C14BFBE
:104B600001208720FFF72EFF4C2C02D10846FFF7CB
:104B700029FF0A21FF20FFF725FF030608D5013989
:104B800011F0FF01F6D138BDFF2038BD9520EEE7CA
:104B900038BD00BF20C00920064A0749137849697B
:104BA000DBB2490154BF03F0FD0343F0030313706C
:104BB000704700BF06C0072020C009202DE9F74339
:104BC000FFF7EAFF564B1A781E4612F0020F01D08B
:104BD0001878A1E00120FFF7DDFE0A24FF20013C48
:104BE000FFF7F0FE14F0FF04F8D14E4F4FF00073C2
:104BF000FB6121464020FFF787FF012802D04FF0DC
:104C0000000875E0FFF7BCFE4FF4D57100F57A752A
:104C10004820FFF779FF012841D10DF10408FF205A
:104C2000FFF7D0FE08F804000134042CF7D19DF8FA
:104C30000630012BE3D19DF80730AA2BDFD12C469B
:104C40000025FFF79DFEA94208BFA04206D3FFF74B
:104C500097FEA94208BFA042D1D207E04FF08041A1
:104C6000E920FFF751FF0028EBD1F0E700217A207F
:104C7000FFF74AFF0028C2D10146FF20FFF7A2FE3E
:104C800008F8010001310429F7D19DF8043013F030
:104C9000400F14BF4FF00C084FF0040828E02146E5
:104CA000E920FFF731FF02282C4635BF4FF00208FC
:104CB0004FF001084FF0E9094FF041090025FFF7D7
:104CC0005FFEA94208BFA0420BD3FFF759FEA942DD
:104CD00008BFA0420CD34FF400715020FFF714FF1F
:104CE00006E000214846FFF70FFF0028E7D1ECE778
:104CF0000D4B83F800804FF00073BB61B8F1000FDB
:104D000007D03378182003F0FE033370FFF742FE1C
:104D100001E0FFF77BFE3078C0B203B0BDE8F0835E
:104D200006C0072020C009204CC5072008B5FFF7A2
:104D300033FF014B187808BD06C0072070B5144634
:104D400006460846FFF728FF002C39D01E4B1B787B
:104D5000DB0737D41D4B4FF00072DA611C4A1D4649
:104D6000127812F0080F08BF4002012C01460CD146
:104D70005120FFF7C9FEE0B94FF400713046FFF74C
:104D800057FEB0FA80F4640913E05220FFF7BCFE2E
:104D900078B94FF400713046FFF74AFE28B1013C64
:104DA00014F0FF0406F50076F3D100214C20FFF744
:104DB000ABFE4FF00073201CAB6118BF012070BD2B
:104DC000042070BD032070BD06C0072020C009204C
:104DD0004CC50720F8B5144606460F46FFF7DCFE23
:104DE000002C44D0254B1A78D20742D41B785B079D
:104DF00041D4234B4FF00072DA61224A1D461278EB
:104E000012F0080F08BF7F02012C0CD13946582040
:104E1000FFF77AFE18BBFE213046FFF74FFEB0FACF
:104E200080F464091CE012F0060F03D02146D7205D
:104E3000FFF76AFE39465920FFF766FE80B9FC216C
:104E40003046FFF73BFE28B1013C14F0FF0406F5A5
:104E50000076F4D1FD210020FFF730FE00B90124D7
:104E60004FF00073201CAB6118BF0120F8BD042077
:104E7000F8BD0320F8BD0220F8BD00BF06C0072022
:104E800020C009204CC507207FB50D46FFF784FEE2
:104E900005281AD12B78012B00F0048103D3022BB3
:104EA0000BD0042001E1824B586910F0806440F07F
:104EB000F980FFF7ABFD2046F7E07D4B5B6983F09F
:104EC0008063C3F380636B70ECE07A4B1B78DB0785
:104ED00000F1EA800E2800F2DF80DFE800F008121F
:104EE0004F53DDDDDDDDDDDDAAAFB2BBCB00704BA6
:104EF0004FF00072DA61FFF771FDFF3818BF012033
:104F0000CBE000214920FFF7FFFD044608B1012056
:104F1000C3E010216846FFF78BFD0028F7D09DF80D
:104F200000309DF808109B09012B9DF8093006D12F
:104F3000013303EB012189B2890229606BE09DF8FE
:104F400007209DF80500920002EB91119DF80620C4
:104F50000131920202F4406211449DF80A2000F0EF
:104F60000F0000EBD2105A00023002F00602831844
:104F7000DBB289B2093B01FA03F34BE04FF4007353
:104F80002B8059E04C4E337803F0040303F0FF010B
:104F9000F3B10021CD20FFF7B7FD0028B7D1FF20E6
:104FA000FFF710FD10216846FFF742FD0028AED044
:104FB0003021FF20FFF706FD481E10F0FF01F8D159
:104FC0009DF80A3008461A09102393402B6064E0CC
:104FD0004920FFF799FD0446002898D11021684622
:104FE000FFF726FD002892D036789DF80A2006F0BB
:104FF000020606F0FF009DF80B3076B1520002F079
:105000007E0202EBD3135A1C9DF80D309B09013B25
:1050100002FA03F32B6020463FE0D90001F01801AB
:10502000C2F3840201EB5311531C01FB03332B60C9
:1050300033E0214B1B782B7000202EE0002149200B
:1050400001E000214A20FFF75FFD00287FF45FAFF9
:1050500010211AE000217A20FFF756FD00287FF486
:1050600056AF291DFF20FFF7ADFC05F8010B8D425F
:10507000F8D1E1E70021CD20FFF746FD00287FF4BD
:1050800046AFFF20FFF79EFC40212846FFF7D0FCEB
:10509000B0FA80F0400900E00420054B4FF00072A8
:1050A0009A6102E0002000E0032004B070BD00BF60
:1050B00020C0092006C007204CC50720054B1B78DF
:1050C000253BDBB2032B9ABF034A52F82300002092
:1050D000704700BF50C50720CC5D02001B4B2DE977
:1050E000F0411D880646B5F5007F0F46144602D1F3
:1050F0002A46214613E0B5F5807F09D12A4621468C
:105100003846B0472A4604F5807107F5807016E0EE
:10511000B5F5047F05D1510A89024FF40072384673
:105120000DE0B5F5847F0ED1140A61024FF4807250
:105130003846B047611C4FF480724902B8183346B4
:10514000BDE8F0411847BDE8F08100BF4EC507201B
:1051500030B52F4C03462546002958DD07291A781B
:105160002DDDA2605A780839A2609A78A260DA78B8
:10517000A2601A79A2605A79A2609A79A26003F1BA
:105180000802DB79A360A3695B07FCD5AB680370F9
:10519000AB684370AB688370AB68C370E368DB06D1
:1051A000FCD4AB68083000F8043CAB6800F8033C62
:1051B000AB6800F8023CAB6800F8013C1AE0032938
:1051C0001ADDA2605A780439A2609A78A2601A1D8A
:1051D000DB78A360E368DB06FCD4AB68043000F83E
:1051E000043CAB6800F8033CAB6800F8023CAB68D9
:1051F00000F8013C1346AFE70133A2600139E268D1
:10520000D206FCD4AA68013000F8012CA4E730BD16
:105210000000034007B50B0C8DF805308DF8071022
:105220000B0A04218DF804000DEB01008DF8063007
:10523000FFF78EFF03B05DF804FBFFFFF7B51746DD
:1052400006460E4C40250323E5618DF804300B0C17
:105250008DF805308DF807100B0A04210DEB0100C5
:105260008DF80630FFF774FF00223946304603F010
:105270009BFFA561A561A56103B0F0BD00C0092039
:105280000E4B4022DA610E4BD7229A601A46D16843
:105290000B4BC906FBD49A681A46FF219960D06867
:1052A000C006FCD4906810F0800FF7D0034B40226A
:1052B0009A61C0B29A619A61704700BF00C009202C
:1052C00000000340F7B5FFF7DBFF1F4C00232380EE
:1052D0001E4B1F4E40271A889B78F7610321054615
:1052E00001A8ADF804208DF80630FFF731FF9DF8D6
:1052F00005209DF806301F2AB7612146B761B761C6
:105300001CD1A3F12502032A18D8124A252B1370A9
:1053100005F0010006D1002814BF4FF480734FF44C
:10532000847305E0002814BF4FF400734FF4047336
:105330000B80FFF7C3FE084B400A18600888B0FADC
:1053400080F0400903B0F0BD4EC50720C45D0200E7
:1053500000C0092050C5072054C50720F8B58B1898
:1053600017460D4A013B12680446934210D84D027D
:10537000FFF786FF00262D1BBE4204EB050209DA6B
:1053800021460648FFF7AAFE04F500740136F3E74C
:105390000120F8BD0020F8BD54C507203D52010092
:1053A000F8B58B1817460C4A013B126893420FD888
:1053B00004460026C0EB4125BE4204EB050209DA93
:1053C00021460648FFF78AFE04F500740136F3E72C
:1053D0000120F8BD0020F8BD54C50720C1540100CC
:1053E00008B5072805D8DFE800F006090E121414E6
:1053F0001414042008BDFFF743FF0AE0FFF75EFE28
:10540000400A086005E04FF400730B8001E00123BF
:105410000B60002008BDFFFF70B590B003466A46E0
:105420006E4600F14005144618685968083303C4F5
:10543000AB422246F7D1084D4024EC6100219B206D
:10544000FFF7E8FE21463046FFF782FEAC61AC6113
:10545000AC6110B070BD00BF00C0092070B5064639
:10546000074D402400217720EC61FFF7D3FE214651
:105470003046FFF76DFEAC61AC61AC6170BD00BF42
:1054800000C0092008B5064B198831F01F0104D06F
:10549000FFF714FEB0FBF1F008BD084608BD00BFE1
:1054A0004EC50720014B1888704700BF4EC5072026
:1054B000024B1878003018BF012070474EC50720F6
:1054C0002DE9F7434FF0FF330F4691460193804695
:1054D000FFF7D6FEFFF7ECFF0646B8B1194C4025A2
:1054E000194BE5611B880320B3F5847F0CBF4FF493
:1054F00080714FF400713943FFF78CFE04210DEBEE
:105500000100FFF725FEA561A561A5610D4C4023B3
:1055100039468220E361FFF77DFE0122494640467D
:1055200003F042FE3EB1019B02A8013340F8043D66
:105530000421FFF70DFE4023A361A361A36103B023
:10554000BDE8F08300C009204EC50720124B37B5D7
:105550001B88B3F5847F0CBF4FF480714FF400714A
:105560004FF0FF3341EA40210193FFF7A1FF68B1FB
:105570000A4C40250320E561FFF74CFE04210DEBAA
:105580000100FFF7E5FDA561A561A5610198431C38
:1055900008BF002003B030BD4EC5072000C0092061
:1055A00037B5084B084C1868402504210190E56187
:1055B0000DEB0100FFF7CCFDA561A561A56103B06E
:1055C00030BD00BFC75D020000C009201FB501A8A3
:1055D00003F00EFD9DF808309DF8092003F01F032D
:1055E00002F00F021B0443EA42519DF806309DF879
:1055F000040003F01F0341EAC3229DF80530C0F305
:10560000440003F03F0342EA4313BDF80A20184365
:10561000520602F10842104305B05DF804FB30B5B4
:1056200004460D1F131B0344032B04D955F8043FF4
:1056300044F8043BF6E79408A3001944A2EB840263
:10564000013B18440A44914204D011F8013B00F890
:10565000013FF8E730BD0244904202D000F8011B40
:10566000FAE7704700F10B010023DA0142EA530325
:1056700010F8012B1344884203F0FF03F5D11846BC
:105680007047036810B50446B3B119460A4611F8CD
:10569000010B1F2802D93A28F8D101E0002010BDE3
:1056A000591C8A4208D11B78303BD9B2012903D852
:1056B00001321846226010BD4FF0FF3010BD036963
:1056C0002DE9F04101F109020D4663B3416900245F
:1056D0004E1E2E2716F8013F0134202B19D0052B22
:1056E00048D0092C01D117700132A3F1410EBEF14F
:1056F000190F0CD8082C91F80CE08CBF4FF0100C4F
:105700004FF0080C1CEA0E0F1CBF2033DBB21370E5
:1057100001320B2CDED1CB7A2B72CB692B600B8B39
:10572000AB80CB8AEB8000241470AE693EB3036972
:105730000BB900241AE0EB69002BFAD04FF6FF7387
:10574000028C9A42F5D0D0F81C80771E38F81400ED
:1057500060B10021FFF74AF80028EAD0EB69013B6D
:105760009C42E6D2013407F8010FEFE700233355DE
:10577000BDE8F081092C4FF0E503C8D1B3E7BDE8DF
:10578000F081F8B5056B00F13407044601232A4681
:1057900039464078FFF7BFF8A0B9636AE269EB1AAF
:1057A0009342207101D30020F8BDE678012EFAD98A
:1057B000E36939461D442A4601236078FFF7ABF8B8
:1057C000013EF3E70120F8BD03790BB1FFF7D9BF24
:1057D0001846704770B50446FFF7F6FF054680BBD4
:1057E0002378032B25D16379012B22D104F13406D0
:1057F00001464FF400723046FFF72DFF4AF655225E
:10580000A4F832220F4A3146626302F1FF5202F5D8
:1058100000522032C4F8182262696078C4F81C2251
:105820002269C4F82022226A01322263FFF773F84A
:105830006571002211466078FFF789F8003018BFC3
:10584000012070BD52526141036B70B58B42054619
:105850000E4610D0FFF7B8FF044608B101240BE054
:105860000123324605F134016878FFF738F8002843
:10587000F4D12E6300E00024204670BD002310B553
:1058800003714FF0FF3303630446FFF7DDFFA0B958
:105890004AF65523B4F832229A4210D1D4F86A302D
:1058A000084A23F07F4393420AD0D4F8860020F0C0
:1058B0007F40801A18BF012010BD032010BD0220B8
:1058C00010BD00BF464154002DE9FF410023036095
:1058D000074608461546FFF7D4FE061EC0F2FA80BA
:1058E000854B53F82640002C00F0F680E068FEF768
:1058F000B9FF002800F0F2803C60237883B1607823
:10590000FEF7E5FFC1070BD4002D00F0E98000F0A1
:10591000040303F0FF00002B00F0EB800A20E8E016
:105920000023F0B223706070FEF7BEFFC20700F1E3
:10593000D9800DB14307F1D400212046FFF79EFF27
:1059400001281CD12146002291F8F6310BB1D1F883
:10595000FA314DF822300132042A01F11001F3D15D
:1059600000265DF826502DB129462046FFF786FF18
:1059700008B90BE002200136042EF2D100E0002528
:10598000032800F0B18008B10D20B2E0B4F83F3038
:10599000B3F5007FF8D1B4F84A6006B9A66D94F863
:1059A00044E0E6610EF1FF33012B84F803E0EBD80D
:1059B00094F84130A370002BE6D05A1E1A42E3D16E
:1059C000B4F845C01CF00F0FA4F808C0DCD1B4F83F
:1059D000472002B9626DB4F842100029D4D006FB0A
:1059E0000EFE01EB1C177744BA42CDD3D21BB2FB9B
:1059F000F3F3002BC8D040F6F572934203F1020096
:105A000005EB01022F4410D94FF6F5718B426DD989
:105A1000A06125626262E762BCF1000FB4D1236E1F
:105A20004FF00308A362830018E04FF00108A06163
:105A300025626262E762BCF1000FA5D0B8F1020FE7
:105A40004FEA400318BF1B18724418BF00F0010052
:105A5000A2621CBF00EB53034FF0010803F2FF13D7
:105A6000B6EB532F90D34FF0FF3363612361B8F14E
:105A7000030F4FF08003637122D1B4F86430012B1F
:105A80001ED1691C2046FFF7DFFEC8B94AF6552330
:105A9000B4F8322260719A4212D1626B174B9A426B
:105AA0000ED103F1FF53D4F8182203F5005320332D
:105AB0009A4201BFD4F81C326361D4F820322361CA
:105AC0000F4A84F800801388002001339BB21380B2
:105AD000E3800EE00B200CE00C200AE00F2008E031
